:020000040000FA
:04080000E4EF04F02D
:08080800D8CF51F0E8CF50F009
:06081000E0CF52F00ED013
:020816000000E0
:08081800D8CF51F0E8CF50F0F9
:10082000E0CF52F052C0E0FF50C0E8FF51C0D8FF07
:100830001000F096F098F0A201D028EC04F0F0A09F
:1008400001D032EC04F0F092F090F088F0861000C5
:1008500048EC04F081A201D0162A010E166401D0E2
:10086000166A120048EC04F081A401D0172A020E87
:10087000176401D0166A1200F9263F0C060C5B0CB7
:100880004F0C660C6D0C7D0C470C7D0C730C12002C
:100890005A0E006E450E016E050E026E002E01D03E
:1008A000012E01D0022EFAD71200046A056A036AEB
:1008B000C350C324116EC450C424126E114212429C
:1008C000640E115CD8A069EF04F0116E042A60EF89
:1008D00004F00A0E115CD8A072EF04F0116E052A24
:1008E00069EF04F01150036E1200300E006E002EFE
:1008F00077EF04F01200D30E006E310E016E002E61
:1009000001D0012EFCD71200020E006E320E016ED5
:10091000012E88EF04F0002E86EF04F0120004444C
:100920003CEC04F0806E827A84EC04F0827A054418
:100930003CEC04F0806E827C84EC04F0827C054404
:100940003CEC04F0806E827E84EC04F0827E120027
:10095000C00EF26EF00EF16ED80EF26E1200770E2F
:10096000D36ED28AD3A4B2EF04F01200806A816AF7
:10097000826A166A176A186A1F0E936E5C975C99F2
:10098000C16A926A946A1200020EC16E900EC06E25
:100990002D0E16B22D0EC26E00D075EC04F0C2B250
:1009A000CFEF04F0C350C32455EC04F0120003C091
:1009B00013F005501302180E136201D08280050E49
:1009C000136201D082901200AFEC04F0B6EC04F098
:1009D000A8EC04F0ECEC04F0C4EC04F08FEC04F0B0
:0C09E0007BEC04F0D7EC04F0ECEF04F02A
:020000040030CA
:0100000023DC
:0100010008F6
:0100020047B6
:010003003EBE
:010005008179
:010006008178
:010008000FE8
:01000900C036
:01000A000FE6
:01000B00E014
:01000C000FE4
:01000D0040B2
:0200000400F00A
:1000000054657374204461746100010203040500A7
:00000001FF
