:100000000C945D000C94B1020C948A020C9485004F
:100010000C9485000C9485000C9485000C9485004C
:100020000C9485000C9485000C9485000C9485003C
:100030000C9485000C9485000C9485000C9485002C
:100040000C9440020C9485000C94FE020C94D8028F
:100050000C9485000C9485000C9485000C9485000C
:100060000C9485000C9485000000000024002700FB
:100070002A0000000000250028002B0004040404CE
:100080000404040402020202020203030303030342
:10009000010204081020408001020408102001021F
:1000A00004081020000000080002010000030407FB
:1000B0000000000000000000300311241FBECFEF3D
:1000C000D8E0DEBFCDBF11E0A0E0B1E0EAE7FCE0A0
:1000D00002C005900D92AE31B107D9F721E0AEE133
:1000E000B1E001C01D92A43DB207E1F710E0CDE5FB
:1000F000D0E004C02197FE010E940F05CC35D10746
:10010000C9F70E945D030C943B060C94000090E03C
:10011000FC01EC55FF4F2491FC01E057FF4F349157
:10012000FC01E458FF4FE491EE2309F43CC0222384
:1001300039F1233091F038F42130A9F0223001F563
:1001400084B58F7D12C0273091F02830A1F0243083
:10015000B9F4809180008F7D03C0809180008F77FB
:10016000809380000DC084B58F7784BD09C08091D5
:10017000B0008F7703C08091B0008F7D8093B00076
:10018000F0E0EE0FFF1FEE58FF4FA591B4919FB71F
:10019000F894611104C08C913095382302C0EC9121
:1001A0003E2B3C939FBF08950F931F93CF93DF93F4
:1001B000D62F8C01C6E0D11103C0F801608101C0C7
:1001C00060E08C2F0E9487000E5F1F4FCF5FCE3004
:1001D00091F7DF91CF911F910F9108953FB7F89458
:1001E00080912F0190913001A0913101B0913201A5
:1001F00026B5A89B05C02F3F19F00196A11DB11D82
:100200003FBFBA2FA92F982F8827820F911DA11DBC
:10021000B11DBC01CD0142E0660F771F881F991FF9
:100220004A95D1F708950895CF92DF92EF92FF9209
:100230000F931F93CF93DF936C017A018B01C0E082
:10024000D0E0CE15DF0581F0D8016D918D01D6018A
:10025000ED91FC910190F081E02DC6010995892B6B
:1002600011F02196EECF7E01C701DF91CF911F9152
:100270000F91FF90EF90DF90CF900895089580E068
:1002800090E00895FC01538D448D252F30E0842F9C
:1002900090E0821B930B541710F0CF9608950197AE
:1002A0000895FC01918D828D981761F0828DDF0198
:1002B000A80FB11D5D968C91928D9F5F9F73928F59
:1002C00090E008958FEF9FEF0895FC01918D828D4E
:1002D000981731F0828DE80FF11D858D90E008951B
:1002E0008FEF9FEF0895FC01918D228D892F90E073
:1002F000805C9F4F821B91098F739927089583E338
:1003000091E00E94730121E0892B09F420E0822F03
:100310000895FC01848DDF01A80FB11DA35ABF4FC2
:100320002C91848D90E001968F739927848FA689F4
:10033000B7892C93A089B1898C91837080648C9348
:10034000938D848D981306C00288F389E02D8081F7
:100350008F7D80830895EF92FF920F931F93CF9329
:10036000DF93EC0181E0888F9B8D8C8D981305C005
:10037000E889F989808185FD26C0F62E0B8D10E075
:100380000F5F1F4F0F731127E02E8C8DE8120CC0EA
:100390000FB607FCFACFE889F989808185FFF5CF90
:1003A000CE010E948901F1CF8B8DFE01E80FF11D76
:1003B000E35AFF4FF0829FB7F8940B8FEA89FB89CD
:1003C000808180620AC09FB7F894EE89FF896083BC
:1003D000E889F98980818370806480839FBF81E090
:1003E00090E0DF91CF911F910F91FF90EF900895D2
:1003F000CF93DF93EC01888D8823C9F0EA89FB89CC
:10040000808185FD05C0A889B9898C9186FD0FC0C2
:100410000FB607FCF5CF808185FFF2CFA889B98997
:100420008C9185FFEDCFCE010E948901E7CFDF914E
:10043000CF91089580E090E0892B29F00E947F0100
:1004400081110C940000089580911E0190911F016C
:100450000196833091052CF490931F0180931E0127
:1004600004C010921F0110921E0180911E019091F4
:100470001F01909327018093260108950E9436065C
:100480001F920F920FB60F9211242F933F938F93C9
:100490009F93AF93BF9380912B0190912C01A091DA
:1004A0002D01B0912E0130912A0123E0230F2D3729
:1004B00020F40196A11DB11D05C026E8230F029668
:1004C000A11DB11D20932A0180932B0190932C0133
:1004D000A0932D01B0932E0180912F0190913001B6
:1004E000A0913101B09132010196A11DB11D8093FF
:1004F0002F0190933001A0933101B0933201BF914D
:10050000AF919F918F913F912F910F900FBE0F90C0
:100510001F9018951F920F920FB60F9211242F93D0
:100520003F934F935F936F937F938F939F93AF937B
:10053000BF93EF93FF93E0910201F09103010995BE
:10054000FF91EF91BF91AF919F918F917F916F91AB
:100550005F914F913F912F910F900FBE0F901F9081
:1005600018951F920F920FB60F9211242F933F935D
:100570004F935F936F937F938F939F93AF93BF93AB
:10058000EF93FF93E0910001F09101010995FF9134
:10059000EF91BF91AF919F918F917F916F915F91FB
:1005A0004F913F912F910F900FBE0F901F90189574
:1005B0001F920F920FB60F9211242F933F934F93D8
:1005C0005F936F937F938F939F93AF93BF93EF93BB
:1005D000FF9383E391E00E948901FF91EF91BF9126
:1005E000AF919F918F917F916F915F914F913F91CB
:1005F0002F910F900FBE0F901F9018951F920F9282
:100600000FB60F9211242F938F939F93EF93FF9325
:10061000E0914301F09144018081E0914901F09122
:100620004A0182FD12C0908180914C018F5F8F73CF
:1006300020914D01821751F0E0914C01F0E0ED5C0A
:10064000FE4F958F80934C0101C08081FF91EF9107
:100650009F918F912F910F900FBE0F901F90189523
:10066000E3E3F1E01382128288EE93E0A0E0B0E0D1
:1006700084839583A683B7838FE091E09183808301
:1006800085EC90E09587848784EC90E09787868757
:1006900080EC90E0918B808B81EC90E0938B828B4F
:1006A00082EC90E0958B848B86EC90E0978B868B28
:1006B000118E128E138E148E0895789484B58260F4
:1006C00084BD84B5816084BD85B5826085BD85B5F6
:1006D000816085BD80916E00816080936E00109274
:1006E00081008091810082608093810080918100EF
:1006F0008160809381008091800081608093800080
:100700008091B10084608093B1008091B0008160DD
:100710008093B00080917A00846080937A00809109
:100720007A00826080937A0080917A008160809361
:100730007A0080917A00806880937A001092C100DC
:1007400023E030E0F901E057FF4F4491F901E4580C
:10075000FF4F8491882399F090E0880F991FFC0146
:10076000E859FF4FA591B491FC01EE58FF4F8591D8
:1007700094918FB7F894EC91E42BEC938FBF2F5F9B
:100780003F4F2E303105F1F6EDE9F0E02491E9E834
:10079000F0E084918823C1F090E0880F991FFC015C
:1007A000E859FF4FC591D491FC01EE58FF4FA59138
:1007B000B4919FB7F8948881E22FE0958E238883C7
:1007C0008C91E823EC939FBF81E080930401E0913A
:1007D0004301F091440182E08083E0913F01F09178
:1007E00040011082E0914101F09142018FEC808341
:1007F00010924B01E0914701F091480186E080831F
:10080000E0914501F0914601808180618083E09113
:100810004501F0914601808188608083E091450127
:10082000F0914601808180688083E0914501F091DC
:10083000460180818F7D8083CAE0D0E004E610E02D
:100840008091040120E4829FC00111248260809382
:100850007C0080917A00806480937A0080917A0095
:1008600086FDFCCF209178008091790030E0382B14
:1008700035952795309329012093280180912601F1
:100880009091270190932501809324010097E1F432
:1008900040912201509123016CE96403C001659FDE
:1008A000900D1124820F931FBE010E94E7047093E4
:1008B000210160932001C901B8010E94E7047093EF
:1008C00023016093220127C08130910561F42091BA
:1008D0002201309123014CE94203C001439F900D56
:1008E00011248A960DC00297B1F420912201309113
:1008F00023016CE96203C001639F900D11240D96E2
:10090000BE010E94E70470932101609320011092C0
:1009100023011092220161E083E00E94870080E1C0
:1009200090E00E94150560E00E94D40061E084E040
:100930000E94870080E190E00E94150560E00E941F
:10094000D40061E085E00E94870080E190E00E9491
:1009500015057C0160E00E94D4000E94EE004B016E
:100960005C0184EF482E55245394612C712C0E9415
:10097000EE00DC01CB0188199909AA09BB09883E60
:100980009340A105B10598F381E0481A5108610828
:10099000710828EE820E23E0921EA11CB11C4114A6
:1009A00051046104710419F761E0C7010E94D40089
:1009B00060E085E00E94870060E084E00E9487009C
:1009C00060E083E00E9487000E941A0239CF97FB03
:1009D000072E16F4009407D077FD09D00E94FB047F
:1009E00007FC05D03EF4909581959F4F0895709532
:1009F00061957F4F0895AA1BBB1B51E107C0AA1F39
:100A0000BB1FA617B70710F0A61BB70B881F991FAF
:100A10005A95A9F780959095BC01CD010895EE0FE8
:100A2000FF1F0590F491E02D09940F931F93CF932E
:100A3000DF938230910510F482E090E0E091D201E2
:100A4000F091D30120E030E0A0E0B0E0309719F160
:100A5000408151810281138148175907C8F08417DA
:100A6000950769F4109731F012960C93129713962C
:100A70001C9327C00093D2011093D30122C02115EB
:100A8000310519F04217530718F49A01BD01EF011F
:100A9000DF01F801DBCF21153105F9F0281B390BF7
:100AA0002430310580F48A819B816115710521F024
:100AB000FB019383828304C09093D3018093D2017E
:100AC000FE01329644C0FE01E20FF31F8193919321
:100AD00022503109398328833AC02091D0013091C6
:100AE000D101232B41F4209107013091080130936B
:100AF000D1012093D00120910501309106012115EB
:100B0000310541F42DB73EB74091090150910A01DA
:100B1000241B350BE091D001F091D101E217F307CE
:100B2000A0F42E1B3F0B2817390778F0AC014E5F5D
:100B30005F4F2417350748F04E0F5F1F5093D101C8
:100B40004093D0018193919302C0E0E0F0E0CF01A7
:100B5000DF91CF911F910F910895CF93DF9300976D
:100B600009F481C0FC01329713821282A091D20154
:100B7000B091D301109781F420813181820F931FAE
:100B80002091D0013091D1012817390751F5F09308
:100B9000D101E093D00167C0ED0120E030E0CE1735
:100BA000DF0740F44A815B819E0141155105F1F058
:100BB000EA01F5CFD383C28340815181840F951F11
:100BC000C817D90759F488819981840F951F029617
:100BD000918380838A819B81938382832115310550
:100BE00029F4F093D301E093D2013DC0E901FB83E6
:100BF000EA8349915991C40FD51FEC17FD0761F4A1
:100C000080819181840F951F0296E90199838883E1
:100C1000828193819B838A83E0E0F0E012968D913C
:100C20009C911397009719F0FD01DC01F7CF8D918E
:100C30009C9111979D012E5F3F4F820F931F209132
:100C4000D0013091D1012817390769F4309729F480
:100C50001092D3011092D20102C013821282B0937B
:100C6000D101A093D001DF91CF91089581E090E070
:0A0C7000F8940C943B06F894FFCFB3
:100C7A0013011301010000D401800000000000AB41
:0E0C8A000114014201F80173015101650100DE
:00000001FF
